{
  "contractName": "Resume",
  "abi": [
    {
      "inputs": [],
      "stateMutability": "nonpayable",
      "type": "constructor"
    },
    {
      "inputs": [
        {
          "internalType": "uint256",
          "name": "",
          "type": "uint256"
        }
      ],
      "name": "education",
      "outputs": [
        {
          "internalType": "uint256",
          "name": "index",
          "type": "uint256"
        },
        {
          "internalType": "string",
          "name": "degree",
          "type": "string"
        },
        {
          "internalType": "string",
          "name": "major",
          "type": "string"
        },
        {
          "internalType": "string",
          "name": "university",
          "type": "string"
        },
        {
          "internalType": "uint256",
          "name": "graduationYear",
          "type": "uint256"
        }
      ],
      "stateMutability": "view",
      "type": "function"
    },
    {
      "inputs": [],
      "name": "personalInfo",
      "outputs": [
        {
          "internalType": "string",
          "name": "fullName",
          "type": "string"
        },
        {
          "internalType": "string",
          "name": "email",
          "type": "string"
        },
        {
          "internalType": "string",
          "name": "phoneNumber",
          "type": "string"
        }
      ],
      "stateMutability": "view",
      "type": "function"
    },
    {
      "inputs": [
        {
          "internalType": "uint256",
          "name": "",
          "type": "uint256"
        }
      ],
      "name": "projects",
      "outputs": [
        {
          "internalType": "uint256",
          "name": "index",
          "type": "uint256"
        },
        {
          "internalType": "string",
          "name": "projectName",
          "type": "string"
        },
        {
          "internalType": "uint256",
          "name": "startDate",
          "type": "uint256"
        },
        {
          "internalType": "uint256",
          "name": "endDate",
          "type": "uint256"
        },
        {
          "internalType": "string",
          "name": "url",
          "type": "string"
        },
        {
          "internalType": "string",
          "name": "projectDescription",
          "type": "string"
        }
      ],
      "stateMutability": "view",
      "type": "function"
    },
    {
      "inputs": [
        {
          "internalType": "uint256",
          "name": "",
          "type": "uint256"
        }
      ],
      "name": "workExperience",
      "outputs": [
        {
          "internalType": "uint256",
          "name": "index",
          "type": "uint256"
        },
        {
          "internalType": "string",
          "name": "companyName",
          "type": "string"
        },
        {
          "internalType": "string",
          "name": "jobTitle",
          "type": "string"
        },
        {
          "internalType": "uint256",
          "name": "startDate",
          "type": "uint256"
        },
        {
          "internalType": "uint256",
          "name": "endDate",
          "type": "uint256"
        }
      ],
      "stateMutability": "view",
      "type": "function"
    },
    {
      "inputs": [],
      "name": "getWorkExperience",
      "outputs": [
        {
          "components": [
            {
              "internalType": "uint256",
              "name": "index",
              "type": "uint256"
            },
            {
              "internalType": "string",
              "name": "companyName",
              "type": "string"
            },
            {
              "internalType": "string",
              "name": "jobTitle",
              "type": "string"
            },
            {
              "internalType": "string[]",
              "name": "jobDescription",
              "type": "string[]"
            },
            {
              "internalType": "uint256",
              "name": "startDate",
              "type": "uint256"
            },
            {
              "internalType": "uint256",
              "name": "endDate",
              "type": "uint256"
            }
          ],
          "internalType": "struct Resume.WorkExperience[]",
          "name": "",
          "type": "tuple[]"
        }
      ],
      "stateMutability": "view",
      "type": "function"
    },
    {
      "inputs": [],
      "name": "getPersonalInformation",
      "outputs": [
        {
          "internalType": "string",
          "name": "",
          "type": "string"
        },
        {
          "internalType": "string",
          "name": "",
          "type": "string"
        },
        {
          "internalType": "string",
          "name": "",
          "type": "string"
        }
      ],
      "stateMutability": "view",
      "type": "function"
    },
    {
      "inputs": [],
      "name": "getEducation",
      "outputs": [
        {
          "components": [
            {
              "internalType": "uint256",
              "name": "index",
              "type": "uint256"
            },
            {
              "internalType": "string",
              "name": "degree",
              "type": "string"
            },
            {
              "internalType": "string",
              "name": "major",
              "type": "string"
            },
            {
              "internalType": "string",
              "name": "university",
              "type": "string"
            },
            {
              "internalType": "uint256",
              "name": "graduationYear",
              "type": "uint256"
            }
          ],
          "internalType": "struct Resume.Education[]",
          "name": "",
          "type": "tuple[]"
        }
      ],
      "stateMutability": "view",
      "type": "function"
    },
    {
      "inputs": [],
      "name": "getProjects",
      "outputs": [
        {
          "components": [
            {
              "internalType": "uint256",
              "name": "index",
              "type": "uint256"
            },
            {
              "internalType": "string",
              "name": "projectName",
              "type": "string"
            },
            {
              "internalType": "uint256",
              "name": "startDate",
              "type": "uint256"
            },
            {
              "internalType": "uint256",
              "name": "endDate",
              "type": "uint256"
            },
            {
              "internalType": "string",
              "name": "url",
              "type": "string"
            },
            {
              "internalType": "string",
              "name": "projectDescription",
              "type": "string"
            }
          ],
          "internalType": "struct Resume.Projects[]",
          "name": "",
          "type": "tuple[]"
        }
      ],
      "stateMutability": "view",
      "type": "function"
    },
    {
      "inputs": [
        {
          "internalType": "string",
          "name": "_degree",
          "type": "string"
        },
        {
          "internalType": "string",
          "name": "_major",
          "type": "string"
        },
        {
          "internalType": "string",
          "name": "_university",
          "type": "string"
        },
        {
          "internalType": "uint256",
          "name": "_graduationYear",
          "type": "uint256"
        }
      ],
      "name": "addEducation",
      "outputs": [],
      "stateMutability": "nonpayable",
      "type": "function"
    },
    {
      "inputs": [
        {
          "internalType": "string",
          "name": "_companyName",
          "type": "string"
        },
        {
          "internalType": "string",
          "name": "_jobTitle",
          "type": "string"
        },
        {
          "internalType": "string[]",
          "name": "_jobDescription",
          "type": "string[]"
        },
        {
          "internalType": "uint256",
          "name": "_startDate",
          "type": "uint256"
        },
        {
          "internalType": "uint256",
          "name": "_endDate",
          "type": "uint256"
        }
      ],
      "name": "addWorkExperience",
      "outputs": [],
      "stateMutability": "nonpayable",
      "type": "function"
    },
    {
      "inputs": [
        {
          "internalType": "string",
          "name": "_projectName",
          "type": "string"
        },
        {
          "internalType": "uint256",
          "name": "_startDate",
          "type": "uint256"
        },
        {
          "internalType": "uint256",
          "name": "_endDate",
          "type": "uint256"
        },
        {
          "internalType": "string",
          "name": "_url",
          "type": "string"
        },
        {
          "internalType": "string",
          "name": "_projectDescription",
          "type": "string"
        }
      ],
      "name": "addProjects",
      "outputs": [],
      "stateMutability": "nonpayable",
      "type": "function"
    }
  ],
  "bytecode": "0x60806040523480156200001157600080fd5b5060405180606001604052806040518060400160405280601181526020017f41736875746f736820547269706174686900000000000000000000000000000081525081526020016040518060400160405280601281526020017f72626a2e6173687540676d61696c2e636f6d000000000000000000000000000081525081526020016040518060400160405280600d81526020017f2b39313836303232393431363100000000000000000000000000000000000000815250815250600080820151816000019081620000e49190620017b6565b506020820151816001019081620000fc9190620017b6565b506040820151816002019081620001149190620017b6565b5090505060036040518060a00160405280600081526020016040518060400160405280601081526020017f53656e696f72205365636f6e646172790000000000000000000000000000000081525081526020016040518060400160405280600781526020017f536369656e63650000000000000000000000000000000000000000000000000081525081526020016040518060600160405280602d8152602001620046e6602d913981526020016107dc8152509080600181540180825580915050600190039060005260206000209060050201600090919091909150600082015181600001556020820151816001019081620002119190620017b6565b506040820151816002019081620002299190620017b6565b506060820151816003019081620002419190620017b6565b5060808201518160040155505060036040518060a00160405280600181526020016040518060400160405280601381526020017f42616368656c6f72e2809973204465677265650000000000000000000000000081525081526020016040518060400160405280601081526020017f436f6d707574657220536369656e63650000000000000000000000000000000081525081526020016040518060600160405280603281526020016200412a6032913981526020016107e08152509080600181540180825580915050600190039060005260206000209060050201600090919091909150600082015181600001556020820151816001019081620003479190620017b6565b5060408201518160020190816200035f9190620017b6565b506060820151816003019081620003779190620017b6565b506080820151816004015550506006806001815401808255809150506001900390600052602060002001600060405180610160016040528061012e81526020016200485f61012e913990919091509081620003d39190620017b6565b5060046040518060c00160405280600081526020016040518060400160405280600d81526020017f4d6963726f50726f20496e666f0000000000000000000000000000000000000081525081526020016040518060400160405280601281526020017f566f636174696f6e616c20547261696e6565000000000000000000000000000081525081526020016006805480602002602001604051908101604052809291908181526020016000905b8282101562000536578382906000526020600020018054620004a290620015a5565b80601f0160208091040260200160405190810160405280929190818152602001828054620004d090620015a5565b8015620005215780601f10620004f55761010080835404028352916020019162000521565b820191906000526020600020905b8154815290600101906020018083116200050357829003601f168201915b50505050508152602001906001019062000480565b5050505081526020016353b1aca881526020016353da8b2881525090806001815401808255809150506001900390600052602060002090600602016000909190919091506000820151816000015560208201518160010190816200059b9190620017b6565b506040820151816002019081620005b39190620017b6565b506060820151816003019080519060200190620005d29291906200142c565b506080820151816004015560a08201518160050155505060066000620005f991906200148c565b60068060018154018082558091505060019003906000526020600020016000604051806101a00160405280610166815260200162003e37610166913990919091509081620006489190620017b6565b5060046040518060c00160405280600181526020016040518060400160405280600d81526020017f4f6e657420496e666f746563680000000000000000000000000000000000000081525081526020016040518060400160405280600681526020017f496e7465726e000000000000000000000000000000000000000000000000000081525081526020016006805480602002602001604051908101604052809291908181526020016000905b82821015620007ab5783829060005260206000200180546200071790620015a5565b80601f01602080910402602001604051908101604052809291908181526020018280546200074590620015a5565b8015620007965780601f106200076a5761010080835404028352916020019162000796565b820191906000526020600020905b8154815290600101906020018083116200077857829003601f168201915b505050505081526020019060010190620006f5565b50505050815260200163556b532881526020016355bbbea78152509080600181540180825580915050600190039060005260206000209060060201600090919091909150600082015181600001556020820151816001019081620008109190620017b6565b506040820151816002019081620008289190620017b6565b506060820151816003019080519060200190620008479291906200142c565b506080820151816004015560a082015181600501555050600660006200086e91906200148c565b600680600181540180825580915050600190039060005260206000200160006040518060a0016040528060628152602001620047136062913990919091509081620008ba9190620017b6565b50600680600181540180825580915050600190039060005260206000200160006040518060c00160405280608181526020016200434f6081913990919091509081620009079190620017b6565b50600680600181540180825580915050600190039060005260206000200160006040518060a00160405280606d815260200162003d58606d913990919091509081620009549190620017b6565b50600680600181540180825580915050600190039060005260206000200160006040518060c0016040528060968152602001620043d06096913990919091509081620009a19190620017b6565b506006806001815401808255809150506001900390600052602060002001600060405180610140016040528061011e815260200162003f9d61011e913990919091509081620009f19190620017b6565b5060046040518060c00160405280600281526020016040518060400160405280601981526020017f5461746120436f6e73756c74616e63792053657276696365730000000000000081525081526020016040518060400160405280601281526020017f536f66747761726520446576656c6f706572000000000000000000000000000081525081526020016006805480602002602001604051908101604052809291908181526020016000905b8282101562000b5457838290600052602060002001805462000ac090620015a5565b80601f016020809104026020016040519081016040528092919081815260200182805462000aee90620015a5565b801562000b3f5780601f1062000b135761010080835404028352916020019162000b3f565b820191906000526020600020905b81548152906001019060200180831162000b2157829003601f168201915b50505050508152602001906001019062000a9e565b50505050815260200163579e43a881526020016360b52b28815250908060018154018082558091505060019003906000526020600020906006020160009091909190915060008201518160000155602082015181600101908162000bb99190620017b6565b50604082015181600201908162000bd19190620017b6565b50606082015181600301908051906020019062000bf09291906200142c565b506080820151816004015560a0820151816005015550506006600062000c1791906200148c565b600680600181540180825580915050600190039060005260206000200160006040518060a0016040528060748152602001620042db607491399091909150908162000c639190620017b6565b50600680600181540180825580915050600190039060005260206000200160006040518060a001604052806063815260200162004278606391399091909150908162000cb09190620017b6565b50600680600181540180825580915050600190039060005260206000200160006040518060800160405280606081526020016200454d606091399091909150908162000cfd9190620017b6565b50600680600181540180825580915050600190039060005260206000200160006040518060a00160405280606f8152602001620040bb606f91399091909150908162000d4a9190620017b6565b5060046040518060c00160405280600381526020016040518060400160405280600e81526020017f4d6f62696c65756d20496e64696100000000000000000000000000000000000081525081526020016040518060400160405280601981526020017f53656e696f7220536f66747761726520446576656c6f7065720000000000000081525081526020016006805480602002602001604051908101604052809291908181526020016000905b8282101562000ead57838290600052602060002001805462000e1990620015a5565b80601f016020809104026020016040519081016040528092919081815260200182805462000e4790620015a5565b801562000e985780601f1062000e6c5761010080835404028352916020019162000e98565b820191906000526020600020905b81548152906001019060200180831162000e7a57829003601f168201915b50505050508152602001906001019062000df7565b5050505081526020016360b52b2881526020016363fe4827815250908060018154018082558091505060019003906000526020600020906006020160009091909190915060008201518160000155602082015181600101908162000f129190620017b6565b50604082015181600201908162000f2a9190620017b6565b50606082015181600301908051906020019062000f499291906200142c565b506080820151816004015560a08201518160050155505060056040518060c00160405280600081526020016040518060400160405280601381526020017f5177616b2043727970746f63757272656e6379000000000000000000000000008152508152602001635f2463288152602001635fee18a78152602001604051806080016040528060508152602001620045ad60509139815260200160405180610120016040528060e98152602001620045fd60e9913981525090806001815401808255809150506001900390600052602060002090600602016000909190919091506000820151816000015560208201518160010190816200104a9190620017b6565b5060408201518160020155606082015181600301556080820151816004019081620010769190620017b6565b5060a08201518160050190816200108e9190620017b6565b50505060056040518060c00160405280600181526020016040518060400160405280601881526020017f536d617274205370656c6c696e6720436f72726563746f7200000000000000008152508152602001635685742881526020016356fd6ca781526020016040518060600160405280603e815260200162003df9603e9139815260200160405180610140016040528061011c81526020016200415c61011c913981525090806001815401808255809150506001900390600052602060002090600602016000909190919091506000820151816000015560208201518160010190816200117d9190620017b6565b5060408201518160020155606082015181600301556080820151816004019081620011a99190620017b6565b5060a0820151816005019081620011c19190620017b6565b50505060056040518060c00160405280600081526020016040518060400160405280600e81526020017f4c6561726e20776974682046756e000000000000000000000000000000000000815250815260200163556b532881526020016355bbbea781526020016040518060600160405280603c815260200162003d1c603c9139815260200160405180610120016040528060ea81526020016200477560ea91398152509080600181540180825580915050600190039060005260206000209060060201600090919091909150600082015181600001556020820151816001019081620012ae9190620017b6565b5060408201518160020155606082015181600301556080820151816004019081620012da9190620017b6565b5060a0820151816005019081620012f29190620017b6565b50505060056040518060c00160405280600081526020016040518060400160405280600b81526020017f536d61727420566f74657200000000000000000000000000000000000000000081525081526020016353da8b28815260200163542af6a7815260200160405180606001604052806034815260200162003dc560349139815260200160405180610120016040528060e781526020016200446660e791398152509080600181540180825580915050600190039060005260206000209060060201600090919091909150600082015181600001556020820151816001019081620013df9190620017b6565b50604082015181600201556060820151816003015560808201518160040190816200140b9190620017b6565b5060a0820151816005019081620014239190620017b6565b5050506200189d565b82805482825590600052602060002090810192821562001479579160200282015b8281111562001478578251829081620014679190620017b6565b50916020019190600101906200144d565b5b509050620014889190620014af565b5090565b5080546000825590600052602060002090810190620014ac9190620014af565b50565b5b80821115620014d35760008181620014c99190620014d7565b50600101620014b0565b5090565b508054620014e590620015a5565b6000825580601f10620014f957506200151a565b601f0160209004906000526020600020908101906200151991906200151d565b5b50565b5b80821115620015385760008160009055506001016200151e565b5090565b600081519050919050565b7f4e487b7100000000000000000000000000000000000000000000000000000000600052604160045260246000fd5b7f4e487b7100000000000000000000000000000000000000000000000000000000600052602260045260246000fd5b60006002820490506001821680620015be57607f821691505b602082108103620015d457620015d362001576565b5b50919050565b60008190508160005260206000209050919050565b60006020601f8301049050919050565b600082821b905092915050565b6000600883026200163e7fffffffffffffffffffffffffffffffffffffffffffffffffffffffffffffffff82620015ff565b6200164a8683620015ff565b95508019841693508086168417925050509392505050565b6000819050919050565b6000819050919050565b600062001697620016916200168b8462001662565b6200166c565b62001662565b9050919050565b6000819050919050565b620016b38362001676565b620016cb620016c2826200169e565b8484546200160c565b825550505050565b600090565b620016e2620016d3565b620016ef818484620016a8565b505050565b5b8181101562001717576200170b600082620016d8565b600181019050620016f5565b5050565b601f82111562001766576200173081620015da565b6200173b84620015ef565b810160208510156200174b578190505b620017636200175a85620015ef565b830182620016f4565b50505b505050565b600082821c905092915050565b60006200178b600019846008026200176b565b1980831691505092915050565b6000620017a6838362001778565b9150826002028217905092915050565b620017c1826200153c565b67ffffffffffffffff811115620017dd57620017dc62001547565b5b620017e98254620015a5565b620017f68282856200171b565b600060209050601f8311600181146200182e576000841562001819578287015190505b62001825858262001798565b86555062001895565b601f1984166200183e86620015da565b60005b82811015620018685784890151825560018201915060208501945060208101905062001841565b8683101562001888578489015162001884601f89168262001778565b8355505b6001600288020188555050505b505050505050565b61246f80620018ad6000396000f3fe608060405234801561001057600080fd5b50600436106100a95760003560e01c8063bad682c611610071578063bad682c61461016f578063c6fc9372146101a3578063dcc60128146101bf578063defa5e88146101dd578063f2dbf12e146101f9578063f6b5433414610219576100a9565b8063107046bd146100ae5780631c41e2db146100e357806377160b0d14610101578063b3629f401461011d578063b5fdb22d1461013b575b600080fd5b6100c860048036038101906100c39190611517565b610239565b6040516100da969594939291906115e3565b60405180910390f35b6100eb61041d565b6040516100f891906117f8565b60405180910390f35b61011b6004803603810190610116919061194f565b610646565b005b610125610701565b6040516101329190611c25565b60405180910390f35b61015560048036038101906101509190611517565b61097b565b604051610166959493929190611c47565b60405180910390f35b61018960048036038101906101849190611517565b610ad1565b60405161019a959493929190611ca8565b60405180910390f35b6101bd60048036038101906101b89190611df6565b610caf565b005b6101c7610d82565b6040516101d4919061201e565b60405180910390f35b6101f760048036038101906101f29190612040565b610fb5565b005b610201611081565b6040516102109392919061210f565b60405180910390f35b610221611231565b6040516102309392919061210f565b60405180910390f35b6005818154811061024957600080fd5b90600052602060002090600602016000915090508060000154908060010180546102729061218a565b80601f016020809104026020016040519081016040528092919081815260200182805461029e9061218a565b80156102eb5780601f106102c0576101008083540402835291602001916102eb565b820191906000526020600020905b8154815290600101906020018083116102ce57829003601f168201915b50505050509080600201549080600301549080600401805461030c9061218a565b80601f01602080910402602001604051908101604052809291908181526020018280546103389061218a565b80156103855780601f1061035a57610100808354040283529160200191610385565b820191906000526020600020905b81548152906001019060200180831161036857829003601f168201915b50505050509080600501805461039a9061218a565b80601f01602080910402602001604051908101604052809291908181526020018280546103c69061218a565b80156104135780601f106103e857610100808354040283529160200191610413565b820191906000526020600020905b8154815290600101906020018083116103f657829003601f168201915b5050505050905086565b60606003805480602002602001604051908101604052809291908181526020016000905b8282101561063d57838290600052602060002090600502016040518060a00160405290816000820154815260200160018201805461047e9061218a565b80601f01602080910402602001604051908101604052809291908181526020018280546104aa9061218a565b80156104f75780601f106104cc576101008083540402835291602001916104f7565b820191906000526020600020905b8154815290600101906020018083116104da57829003601f168201915b505050505081526020016002820180546105109061218a565b80601f016020809104026020016040519081016040528092919081815260200182805461053c9061218a565b80156105895780601f1061055e57610100808354040283529160200191610589565b820191906000526020600020905b81548152906001019060200180831161056c57829003601f168201915b505050505081526020016003820180546105a29061218a565b80601f01602080910402602001604051908101604052809291908181526020018280546105ce9061218a565b801561061b5780601f106105f05761010080835404028352916020019161061b565b820191906000526020600020905b8154815290600101906020018083116105fe57829003601f168201915b5050505050815260200160048201548152505081526020019060010190610441565b50505050905090565b6000600380549050905060036040518060a001604052808381526020018781526020018681526020018581526020018481525090806001815401808255809150506001900390600052602060002090600502016000909190919091506000820151816000015560208201518160010190816106c19190612367565b5060408201518160020190816106d79190612367565b5060608201518160030190816106ed9190612367565b506080820151816004015550505050505050565b60606004805480602002602001604051908101604052809291908181526020016000905b8282101561097257838290600052602060002090600602016040518060c0016040529081600082015481526020016001820180546107629061218a565b80601f016020809104026020016040519081016040528092919081815260200182805461078e9061218a565b80156107db5780601f106107b0576101008083540402835291602001916107db565b820191906000526020600020905b8154815290600101906020018083116107be57829003601f168201915b505050505081526020016002820180546107f49061218a565b80601f01602080910402602001604051908101604052809291908181526020018280546108209061218a565b801561086d5780601f106108425761010080835404028352916020019161086d565b820191906000526020600020905b81548152906001019060200180831161085057829003601f168201915b5050505050815260200160038201805480602002602001604051908101604052809291908181526020016000905b828210156109475783829060005260206000200180546108ba9061218a565b80601f01602080910402602001604051908101604052809291908181526020018280546108e69061218a565b80156109335780601f1061090857610100808354040283529160200191610933565b820191906000526020600020905b81548152906001019060200180831161091657829003601f168201915b50505050508152602001906001019061089b565b5050505081526020016004820154815260200160058201548152505081526020019060010190610725565b50505050905090565b6004818154811061098b57600080fd5b90600052602060002090600602016000915090508060000154908060010180546109b49061218a565b80601f01602080910402602001604051908101604052809291908181526020018280546109e09061218a565b8015610a2d5780601f10610a0257610100808354040283529160200191610a2d565b820191906000526020600020905b815481529060010190602001808311610a1057829003601f168201915b505050505090806002018054610a429061218a565b80601f0160208091040260200160405190810160405280929190818152602001828054610a6e9061218a565b8015610abb5780601f10610a9057610100808354040283529160200191610abb565b820191906000526020600020905b815481529060010190602001808311610a9e57829003601f168201915b5050505050908060040154908060050154905085565b60038181548110610ae157600080fd5b9060005260206000209060050201600091509050806000015490806001018054610b0a9061218a565b80601f0160208091040260200160405190810160405280929190818152602001828054610b369061218a565b8015610b835780601f10610b5857610100808354040283529160200191610b83565b820191906000526020600020905b815481529060010190602001808311610b6657829003601f168201915b505050505090806002018054610b989061218a565b80601f0160208091040260200160405190810160405280929190818152602001828054610bc49061218a565b8015610c115780601f10610be657610100808354040283529160200191610c11565b820191906000526020600020905b815481529060010190602001808311610bf457829003601f168201915b505050505090806003018054610c269061218a565b80601f0160208091040260200160405190810160405280929190818152602001828054610c529061218a565b8015610c9f5780601f10610c7457610100808354040283529160200191610c9f565b820191906000526020600020905b815481529060010190602001808311610c8257829003601f168201915b5050505050908060040154905085565b6000600480549050905060046040518060c00160405280838152602001888152602001878152602001868152602001858152602001848152509080600181540180825580915050600190039060005260206000209060060201600090919091909150600082015181600001556020820151816001019081610d309190612367565b506040820151816002019081610d469190612367565b506060820151816003019080519060200190610d639291906113f3565b506080820151816004015560a082015181600501555050505050505050565b60606005805480602002602001604051908101604052809291908181526020016000905b82821015610fac57838290600052602060002090600602016040518060c001604052908160008201548152602001600182018054610de39061218a565b80601f0160208091040260200160405190810160405280929190818152602001828054610e0f9061218a565b8015610e5c5780601f10610e3157610100808354040283529160200191610e5c565b820191906000526020600020905b815481529060010190602001808311610e3f57829003601f168201915b505050505081526020016002820154815260200160038201548152602001600482018054610e899061218a565b80601f0160208091040260200160405190810160405280929190818152602001828054610eb59061218a565b8015610f025780601f10610ed757610100808354040283529160200191610f02565b820191906000526020600020905b815481529060010190602001808311610ee557829003601f168201915b50505050508152602001600582018054610f1b9061218a565b80601f0160208091040260200160405190810160405280929190818152602001828054610f479061218a565b8015610f945780601f10610f6957610100808354040283529160200191610f94565b820191906000526020600020905b815481529060010190602001808311610f7757829003601f168201915b50505050508152505081526020019060010190610da6565b50505050905090565b6000600580549050905060056040518060c001604052808381526020018881526020018781526020018681526020018581526020018481525090806001815401808255809150506001900390600052602060002090600602016000909190919091506000820151816000015560208201518160010190816110369190612367565b50604082015181600201556060820151816003015560808201518160040190816110609190612367565b5060a08201518160050190816110769190612367565b505050505050505050565b60008060000180546110929061218a565b80601f01602080910402602001604051908101604052809291908181526020018280546110be9061218a565b801561110b5780601f106110e05761010080835404028352916020019161110b565b820191906000526020600020905b8154815290600101906020018083116110ee57829003601f168201915b5050505050908060010180546111209061218a565b80601f016020809104026020016040519081016040528092919081815260200182805461114c9061218a565b80156111995780601f1061116e57610100808354040283529160200191611199565b820191906000526020600020905b81548152906001019060200180831161117c57829003601f168201915b5050505050908060020180546111ae9061218a565b80601f01602080910402602001604051908101604052809291908181526020018280546111da9061218a565b80156112275780601f106111fc57610100808354040283529160200191611227565b820191906000526020600020905b81548152906001019060200180831161120a57829003601f168201915b5050505050905083565b606080606060008001600060010160006002018280546112509061218a565b80601f016020809104026020016040519081016040528092919081815260200182805461127c9061218a565b80156112c95780601f1061129e576101008083540402835291602001916112c9565b820191906000526020600020905b8154815290600101906020018083116112ac57829003601f168201915b505050505092508180546112dc9061218a565b80601f01602080910402602001604051908101604052809291908181526020018280546113089061218a565b80156113555780601f1061132a57610100808354040283529160200191611355565b820191906000526020600020905b81548152906001019060200180831161133857829003601f168201915b505050505091508080546113689061218a565b80601f01602080910402602001604051908101604052809291908181526020018280546113949061218a565b80156113e15780601f106113b6576101008083540402835291602001916113e1565b820191906000526020600020905b8154815290600101906020018083116113c457829003601f168201915b50505050509050925092509250909192565b82805482825590600052602060002090810192821561143b579160200282015b8281111561143a57825182908161142a9190612367565b5091602001919060010190611413565b5b509050611448919061144c565b5090565b5b8082111561146c57600081816114639190611470565b5060010161144d565b5090565b50805461147c9061218a565b6000825580601f1061148e57506114ad565b601f0160209004906000526020600020908101906114ac91906114b0565b5b50565b5b808211156114c95760008160009055506001016114b1565b5090565b6000604051905090565b600080fd5b600080fd5b6000819050919050565b6114f4816114e1565b81146114ff57600080fd5b50565b600081359050611511816114eb565b92915050565b60006020828403121561152d5761152c6114d7565b5b600061153b84828501611502565b91505092915050565b61154d816114e1565b82525050565b600081519050919050565b600082825260208201905092915050565b60005b8381101561158d578082015181840152602081019050611572565b60008484015250505050565b6000601f19601f8301169050919050565b60006115b582611553565b6115bf818561155e565b93506115cf81856020860161156f565b6115d881611599565b840191505092915050565b600060c0820190506115f86000830189611544565b818103602083015261160a81886115aa565b90506116196040830187611544565b6116266060830186611544565b818103608083015261163881856115aa565b905081810360a083015261164c81846115aa565b9050979650505050505050565b600081519050919050565b600082825260208201905092915050565b6000819050602082019050919050565b61168e816114e1565b82525050565b600082825260208201905092915050565b60006116b082611553565b6116ba8185611694565b93506116ca81856020860161156f565b6116d381611599565b840191505092915050565b600060a0830160008301516116f66000860182611685565b506020830151848203602086015261170e82826116a5565b9150506040830151848203604086015261172882826116a5565b9150506060830151848203606086015261174282826116a5565b91505060808301516117576080860182611685565b508091505092915050565b600061176e83836116de565b905092915050565b6000602082019050919050565b600061178e82611659565b6117988185611664565b9350836020820285016117aa85611675565b8060005b858110156117e657848403895281516117c78582611762565b94506117d283611776565b925060208a019950506001810190506117ae565b50829750879550505050505092915050565b600060208201905081810360008301526118128184611783565b905092915050565b600080fd5b600080fd5b7f4e487b7100000000000000000000000000000000000000000000000000000000600052604160045260246000fd5b61185c82611599565b810181811067ffffffffffffffff8211171561187b5761187a611824565b5b80604052505050565b600061188e6114cd565b905061189a8282611853565b919050565b600067ffffffffffffffff8211156118ba576118b9611824565b5b6118c382611599565b9050602081019050919050565b82818337600083830152505050565b60006118f26118ed8461189f565b611884565b90508281526020810184848401111561190e5761190d61181f565b5b6119198482856118d0565b509392505050565b600082601f8301126119365761193561181a565b5b81356119468482602086016118df565b91505092915050565b60008060008060808587031215611969576119686114d7565b5b600085013567ffffffffffffffff811115611987576119866114dc565b5b61199387828801611921565b945050602085013567ffffffffffffffff8111156119b4576119b36114dc565b5b6119c087828801611921565b935050604085013567ffffffffffffffff8111156119e1576119e06114dc565b5b6119ed87828801611921565b92505060606119fe87828801611502565b91505092959194509250565b600081519050919050565b600082825260208201905092915050565b6000819050602082019050919050565b600081519050919050565b600082825260208201905092915050565b6000819050602082019050919050565b6000611a6e83836116a5565b905092915050565b6000602082019050919050565b6000611a8e82611a36565b611a988185611a41565b935083602082028501611aaa85611a52565b8060005b85811015611ae65784840389528151611ac78582611a62565b9450611ad283611a76565b925060208a01995050600181019050611aae565b50829750879550505050505092915050565b600060c083016000830151611b106000860182611685565b5060208301518482036020860152611b2882826116a5565b91505060408301518482036040860152611b4282826116a5565b91505060608301518482036060860152611b5c8282611a83565b9150506080830151611b716080860182611685565b5060a0830151611b8460a0860182611685565b508091505092915050565b6000611b9b8383611af8565b905092915050565b6000602082019050919050565b6000611bbb82611a0a565b611bc58185611a15565b935083602082028501611bd785611a26565b8060005b85811015611c135784840389528151611bf48582611b8f565b9450611bff83611ba3565b925060208a01995050600181019050611bdb565b50829750879550505050505092915050565b60006020820190508181036000830152611c3f8184611bb0565b905092915050565b600060a082019050611c5c6000830188611544565b8181036020830152611c6e81876115aa565b90508181036040830152611c8281866115aa565b9050611c916060830185611544565b611c9e6080830184611544565b9695505050505050565b600060a082019050611cbd6000830188611544565b8181036020830152611ccf81876115aa565b90508181036040830152611ce381866115aa565b90508181036060830152611cf781856115aa565b9050611d066080830184611544565b9695505050505050565b600067ffffffffffffffff821115611d2b57611d2a611824565b5b602082029050602081019050919050565b600080fd5b6000611d54611d4f84611d10565b611884565b90508083825260208201905060208402830185811115611d7757611d76611d3c565b5b835b81811015611dbe57803567ffffffffffffffff811115611d9c57611d9b61181a565b5b808601611da98982611921565b85526020850194505050602081019050611d79565b5050509392505050565b600082601f830112611ddd57611ddc61181a565b5b8135611ded848260208601611d41565b91505092915050565b600080600080600060a08688031215611e1257611e116114d7565b5b600086013567ffffffffffffffff811115611e3057611e2f6114dc565b5b611e3c88828901611921565b955050602086013567ffffffffffffffff811115611e5d57611e5c6114dc565b5b611e6988828901611921565b945050604086013567ffffffffffffffff811115611e8a57611e896114dc565b5b611e9688828901611dc8565b9350506060611ea788828901611502565b9250506080611eb888828901611502565b9150509295509295909350565b600081519050919050565b600082825260208201905092915050565b6000819050602082019050919050565b600060c083016000830151611f096000860182611685565b5060208301518482036020860152611f2182826116a5565b9150506040830151611f366040860182611685565b506060830151611f496060860182611685565b5060808301518482036080860152611f6182826116a5565b91505060a083015184820360a0860152611f7b82826116a5565b9150508091505092915050565b6000611f948383611ef1565b905092915050565b6000602082019050919050565b6000611fb482611ec5565b611fbe8185611ed0565b935083602082028501611fd085611ee1565b8060005b8581101561200c5784840389528151611fed8582611f88565b9450611ff883611f9c565b925060208a01995050600181019050611fd4565b50829750879550505050505092915050565b600060208201905081810360008301526120388184611fa9565b905092915050565b600080600080600060a0868803121561205c5761205b6114d7565b5b600086013567ffffffffffffffff81111561207a576120796114dc565b5b61208688828901611921565b955050602061209788828901611502565b94505060406120a888828901611502565b935050606086013567ffffffffffffffff8111156120c9576120c86114dc565b5b6120d588828901611921565b925050608086013567ffffffffffffffff8111156120f6576120f56114dc565b5b61210288828901611921565b9150509295509295909350565b6000606082019050818103600083015261212981866115aa565b9050818103602083015261213d81856115aa565b9050818103604083015261215181846115aa565b9050949350505050565b7f4e487b7100000000000000000000000000000000000000000000000000000000600052602260045260246000fd5b600060028204905060018216806121a257607f821691505b6020821081036121b5576121b461215b565b5b50919050565b60008190508160005260206000209050919050565b60006020601f8301049050919050565b600082821b905092915050565b60006008830261221d7fffffffffffffffffffffffffffffffffffffffffffffffffffffffffffffffff826121e0565b61222786836121e0565b95508019841693508086168417925050509392505050565b6000819050919050565b600061226461225f61225a846114e1565b61223f565b6114e1565b9050919050565b6000819050919050565b61227e83612249565b61229261228a8261226b565b8484546121ed565b825550505050565b600090565b6122a761229a565b6122b2818484612275565b505050565b5b818110156122d6576122cb60008261229f565b6001810190506122b8565b5050565b601f82111561231b576122ec816121bb565b6122f5846121d0565b81016020851015612304578190505b612318612310856121d0565b8301826122b7565b50505b505050565b600082821c905092915050565b600061233e60001984600802612320565b1980831691505092915050565b6000612357838361232d565b9150826002028217905092915050565b61237082611553565b67ffffffffffffffff81111561238957612388611824565b5b612393825461218a565b61239e8282856122da565b600060209050601f8311600181146123d157600084156123bf578287015190505b6123c9858261234b565b865550612431565b601f1984166123df866121bb565b60005b82811015612407578489015182556001820191506020850194506020810190506123e2565b868310156124245784890151612420601f89168261232d565b8355505b6001600288020188555050505b50505050505056fea2646970667358221220d3ed67992898a532323cea9167127c544bd8f4a3436a997717f0660ca9ffaa5d64736f6c6343000811003368747470733a2f2f6769746875622e636f6d2f61736875746f73682d74726970617468692f4c6561726e2d776974682d66756e2d67616d652e676974446576656c6f70656420737072696e67206d6963726f7365727669636573206261736564206761746577617920696e74657266616365207573696e67204661627269632053444b204a61766120746f20696e746572616374207769746820666162726963206e6574776f726b2e68747470733a2f2f6769746875622e636f6d2f61736875746f73682d74726970617468692f736d6172742d766f7465722e67697468747470733a2f2f6769746875622e636f6d2f61736875746f73682d74726970617468692f736d6172745f7370656c6c5f636f72726563746f722e676974446576656c6f70656420612077696e646f77732d62617365642067616d65202866756e20696e6475636564206c6561726e696e6720706c6174666f726d2920666f72206b69647320746f2064656d6f6e7374726174652074686520656666656374206f662067616d652d6261736564206c6561726e696e672e205468652070726f6a65637420696e766f6c76656420646576656c6f70696e672061207061696e7462616c6c2067616d65207573696e67204323202e6e657420616e642057696e646f777320584e412047616d6520646576656c6f706d656e7420706c6174666f726d2077697468206275696c742d696e207175697a7a657320666f72206d6f7469766174696e67206b69647320746f206c6561726e2e204675727468657220746f2074686520646576656c6f706d656e742c207465737473207765726520636f6e64756374656420616e6420726563656976656420706f736974697665206f7574636f6d652e576f726b6564206173206120436f7265204a41564120616e64206175746f6d6174696f6e20646576656c6f7065722c20726573706f6e7369626c6520666f7220646576656c6f70696e6720616e20616461707461626c65206175746f6d6174696f6e2074657374696e67206672616d65776f726b20666f722062616e6b696e672065636f73797374656d20746861742063616e2062652075736564206163726f737320766172696f757320696d706c656d656e746174696f6e7320616e6420627573696e657373207472616e73616374696f6e206d6f646573202853637265656e732c2053574946542049534f20313530323220616e642049534f2032303032322c205265706f7274732c20426174636865732c2051756572696573292e526573706f6e7369626c6520666f7220646576656c6f70696e67204a6176612f4a3245452d6261736564206261636b656e6420746f20656e61626c6520656666696369656e7420636f6d6d756e69636174696f6e206265747765656e20554920616e6420626c6f636b636861696e2e4368617474697367617268205377616d6920566976656b616e616e646120546563686e6963616c20556e6976657273697479496d706c656d656e746564205065746572204e6f727669672773207370656c6c20636f72726563746f7220616c676f726974686d207573696e67207472696520646174612073747275637475726520616e64204261796573207468656f72656d2e205468697320696d706c656d656e746174696f6e206973206675727468657220696d70726f76656d656e74206f766572204e6f72766967277320696d706c656d656e746174696f6e2061732069742061646473206e657720706172616d657465727320746f2074686520776f72642070726564696374696f6e20616c676f726974686d20616e64207468757320696e6372656173696e6720746865206163637572616379206f662074686520776f7264207072656469637465642e436f6e747269627574656420746f2074686520646576656c6f706d656e74206f662061204349434420706970656c696e6520746f206465706c6f792070726f64756374206f6e20476f6f676c6520436c6f756420506c6174666f726d2028474350292e446576656c6f7065642045544c206a6f6220746f2073747265616d6c696e652070726f63657373206f662072656164696e672062756c6b20646174612066726f6d2066696c652f62696771756572792c207472616e73666f726d20616e64206c6f6164206461746120746f2062696771756572795375636365737366756c6c792064657369676e656420616e64206465706c6f796564206120686967682d617661696c61626c652048797065726c656467657220466162726963206e6574776f726b207573696e67204b756265726e6574657320616e64204b61666b61206261736564206f72646572696e6720736572766963652e5375636365737366756c6c7920636f6d706c6574656420504f43732077697468206672616d65776f726b73206c696b6520457468657265756d2c20436f72646120616e642077616c6c6574206372656174696f6e20666f722063727970746f63757272656e63696573206c696b6520426974636f696e2c20426974636f696e436173682c20457468657265756d2c20526970706c652e536d61727420766f74657220697320612073656375726520616e642072656c6961626c65206f6e6c696e6520766f74696e6720706c6174666f726d20646576656c6f706564207573696e67204a3245452c204f7261636c6520616e64207365637572656420776974682053534c20616e64204d443520656e6372797074696f6e20746563686e69717565732e205468697320776562206170706c69636174696f6e2063616e206566666563746976656c792065617365207468652070726f63657373206f6620636f6e64756374696e67207375727665797320616e6420656c656374696f6e732e43757272656e746c7920776f726b696e67206f6e2074686520646576656c6f706d656e74206f6620612048797065726c6564676572204661627269632d626173656420636f6e7472616374206e65676f74696174696f6e2070726f647563742e68747470733a2f2f7177616b2e6865726f6b756170702e636f6d2f2c68747470733a2f2f6769746875622e636f6d2f61736875746f73682d74726970617468692f63727970746f636861696e2e67697443726561746564206120626c6f636b636861696e2062617365642063727970746f63757272656e6379207177616b2c20746861742063616e2062652075736564206c696b6520616e79206f746865722063757272656e63792077697468207468652073616665747920616e64207365637572697479206f6620626c6f636b636861696e2e2054686520636f696e2069732063726561746564207573696e67204e6f64654a532c207769746820726564697320666f7220636f6d6d756e69636174696f6e206265747765656e206e6f64657320616e64206465706c6f796564206f6e206865726f6b752e53742e204a6f736570682053656e696f72205365636f6e64617279205363686f6f6c2c2044696269796170757244657369676e656420616e6420646576656c6f7065642048797065726c65646765722046616272696320626c6f636b636861696e20736f6c7574696f6e20666f7220612053696e6761706f726520626173656420706f77657220636f6d70616e792e4c6561726e20776974682066756e20697320612057696e646f77732d62617365642067616d6520746861742064656d6f6e7374726174657320746865206964656f6c6f6779206f662067616d652d6261736564206c6561726e696e672e20497420697320612073696d706c65207061696e7462616c6c2067616d6520646576656c6f706564207573696e67204323202e6e657420616e6420584e412047616d6520646576656c6f706d656e74206672616d65776f726b2077697468206275696c742d696e207175697a7a657320666f72206d6f7469766174696e67206b69647320746f206c6561726e2e5375636365737366756c6c7920636f6d706c6574656420766f636174696f6e616c20747261696e696e6720696e20576562204261736564204170706c69636174696f6e20446576656c6f706d656e74207573696e67204a32454520616e64204f7261636c652e20446576656c6f70656420612073656375726520616e642072656c6961626c65206f6e6c696e6520766f74696e6720706c6174666f726d20746861742063616e2068656c7020696e20636f6e64756374696e67207375727665797320616e6420656c656374696f6e732e2054686520776562206170706c69636174696f6e20697320646576656c6f706564207573696e67204a3245452c204f7261636c6520616e642073656375726564207573696e672053534c20616e64204d443520656e6372797074696f6e73",
  "immutableReferences": {},
  "source": "//SPDX-License-Identifier: MIT\npragma solidity ^0.8.15;\ncontract Resume{\n\n        struct PersonalInformation {\n        string fullName;\n        string email;\n        string phoneNumber;\n        }\n        struct Education {\n        uint index;\n        string degree;\n        string major;\n        string university;\n        uint graduationYear;\n        }\n        struct WorkExperience {\n        uint index;\n        string companyName;\n        string jobTitle;\n        string[] jobDescription;\n        uint startDate;\n        uint endDate;\n        }\n        struct Projects {\n        uint index;\n        string projectName;\n        uint startDate;\n        uint endDate;\n        string url;\n        string projectDescription; \n        }\n        PersonalInformation public personalInfo;\n        Education[] public education;\n        WorkExperience[] public workExperience;\n        Projects[] public projects;\n        string[]  jobDescription1;\n\n        constructor() {\n        personalInfo = PersonalInformation({\n            fullName: \"Ashutosh Tripathi\",\n            email: \"rbj.ashu@gmail.com\",\n            phoneNumber: \"+918602294161\"\n        });\n        \n        \n         education.push(Education({\n            index: 0,\n            degree: \"Senior Secondary\",\n            major: \"Science\",\n            university: unicode\"St. Joseph Senior Secondary School, Dibiyapur\",\n            graduationYear: 2012\n        }));\n        education.push(Education({\n            index: 1,\n            degree: unicode\"Bachelors Degree\",\n            major: \"Computer Science\",\n            university: \"Chattisgarh Swami Vivekananda Technical University\",\n            graduationYear: 2016\n        }));\n        \n        \n\n        \n        jobDescription1.push(\"Successfully completed vocational training in Web Based Application Development using J2EE and Oracle. Developed a secure and reliable online voting platform that can help in conducting surveys and elections. The web application is developed using J2EE, Oracle and secured using SSL and MD5 encryptions\");\n        workExperience.push(WorkExperience({\n            index:0,\n            companyName: \"MicroPro Info\",\n            jobTitle: \"Vocational Trainee\",\n            jobDescription: jobDescription1,\n            startDate: 1404153000,\n            endDate: 1406831400\n        }));\n        delete jobDescription1;\n        jobDescription1.push(\"Developed a windows-based game (fun induced learning platform) for kids to demonstrate the effect of game-based learning. The project involved developing a paintball game using C# .net and Windows XNA Game development platform with built-in quizzes for motivating kids to learn. Further to the development, tests were conducted and received positive outcome.\");\n        workExperience.push(WorkExperience({\n            index:1,\n            companyName: \"Onet Infotech\",\n            jobTitle: \"Intern\",\n            jobDescription: jobDescription1,\n            startDate: 1433097000,\n            endDate: 1438367399\n        }));\n        delete jobDescription1;\n        jobDescription1.push(\"Designed and developed Hyperledger Fabric blockchain solution for a Singapore based power company.\");\n        jobDescription1.push(\"Successfully designed and deployed a high-available Hyperledger Fabric network using Kubernetes and Kafka based ordering service.\");\n        jobDescription1.push(\"Developed spring microservices based gateway interface using Fabric SDK Java to interact with fabric network.\");\n        jobDescription1.push(\"Successfully completed POCs with frameworks like Ethereum, Corda and wallet creation for cryptocurrencies like Bitcoin, BitcoinCash, Ethereum, Ripple.\");\n        jobDescription1.push(\"Worked as a Core JAVA and automation developer, responsible for developing an adaptable automation testing framework for banking ecosystem that can be used across various implementations and business transaction modes (Screens, SWIFT ISO 15022 and ISO 20022, Reports, Batches, Queries).\");\n        workExperience.push(WorkExperience({\n            index:2,\n            companyName: \"Tata Consultancy Services\",\n            jobTitle: \"Software Developer\",\n            jobDescription: jobDescription1,\n            startDate: 1469989800,\n            endDate: 1622485800\n        }));\n        delete jobDescription1;\n        jobDescription1.push(\"Developed ETL job to streamline process of reading bulk data from file/bigquery, transform and load data to bigquery\");\n        jobDescription1.push(\"Contributed to the development of a CICD pipeline to deploy product on Google Cloud Platform (GCP).\");\n        jobDescription1.push(\"Currently working on the development of a Hyperledger Fabric-based contract negotiation product.\");\n        jobDescription1.push(\"Responsible for developing Java/J2EE-based backend to enable efficient communication between UI and blockchain.\");\n        workExperience.push(WorkExperience({\n            index:3,\n            companyName: \"Mobileum India\",\n            jobTitle: \"Senior Software Developer\",\n            jobDescription: jobDescription1,\n            startDate: 1622485800,\n            endDate: 1677608999\n        }));\n        projects.push(Projects({\n            index:0,\n            projectName:\"Qwak Cryptocurrency\",\n            startDate:1596220200,\n            endDate:1609439399,\n            url:\"https://qwak.herokuapp.com/,https://github.com/ashutosh-tripathi/cryptochain.git\",\n            projectDescription:\"Created a blockchain based cryptocurrency qwak, that can be used like any other currency with the safety and security of blockchain. The coin is created using NodeJS, with redis for communication between nodes and deployed on heroku.\" \n        }));\n        projects.push(Projects({\n            index:1,\n            projectName:\"Smart Spelling Corrector\",\n            startDate:1451586600,\n            endDate:1459448999,\n            url:\"https://github.com/ashutosh-tripathi/smart_spell_corrector.git\",\n            projectDescription:\"Implemented Peter Norvig's spell corrector algorithm using trie data structure and Bayes theorem. This implementation is further improvement over Norvig's implementation as it adds new parameters to the word prediction algorithm and thus increasing the accuracy of the word predicted.\" \n        }));\n        projects.push(Projects({\n            index:0,\n            projectName:\"Learn with Fun\",\n            startDate:1433097000,\n            endDate:1438367399,\n            url:\"https://github.com/ashutosh-tripathi/Learn-with-fun-game.git\",\n            projectDescription:\"Learn with fun is a Windows-based game that demonstrates the ideology of game-based learning. It is a simple paintball game developed using C# .net and XNA Game development framework with built-in quizzes for motivating kids to learn.\" \n        }));\n        projects.push(Projects({\n            index:0,\n            projectName:\"Smart Voter\",\n            startDate:1406831400,\n            endDate:1412101799,\n            url:\"https://github.com/ashutosh-tripathi/smart-voter.git\",\n            projectDescription:\"Smart voter is a secure and reliable online voting platform developed using J2EE, Oracle and secured with SSL and MD5 encryption techniques. This web application can effectively ease the process of conducting surveys and elections.\" \n        }));\n\n    }\n\n        // function pushData(string memory data) public{\n        //     jobDescription.push(data);\n        // }\n\n     function getWorkExperience() public view returns (WorkExperience[] memory) {\n        return workExperience;\n     }\n    \n\n    function getPersonalInformation() public view returns (\n        string memory,\n        string memory,\n        string memory\n    ) {\n        return (\n            personalInfo.fullName,\n            personalInfo.email,\n            personalInfo.phoneNumber\n        );\n    }\n    function getEducation() public view returns (Education[] memory) {\n        return education;\n    }\n    function getProjects() public view returns(Projects[] memory){\n        return projects;\n    }\n    function addEducation(\n        string memory _degree,\n        string memory _major,\n        string memory _university,\n        uint _graduationYear\n    ) public {\n        uint idx=education.length;\n        education.push(Education({\n            index:idx,\n            degree: _degree,\n            major: _major,\n            university: _university,\n            graduationYear: _graduationYear\n        }));\n    }\n\n    function addWorkExperience(\n        string memory _companyName,\n        string memory _jobTitle,\n        string[] memory _jobDescription,\n        uint _startDate,\n        uint _endDate\n    ) public {\n        uint idx=workExperience.length;\n        workExperience.push(WorkExperience({\n            index:idx,\n            companyName: _companyName,\n            jobTitle: _jobTitle,\n            jobDescription: _jobDescription,\n            startDate: _startDate,\n            endDate: _endDate\n        }));\n    }\n    function addProjects(\n        string memory _projectName,\n        uint _startDate,\n        uint _endDate,\n        string memory _url,\n        string memory _projectDescription ) public {\n            uint idx=projects.length;\n            projects.push(Projects({\n                index:idx,\n                projectName:_projectName,\n                startDate:_startDate,\n                endDate:_endDate,\n                url:_url,\n                projectDescription:_projectDescription\n            }));\n\n    }\n\n\n\n}",
  "sourcePath": "/home/ashutosh/Downloads/ethereum/Resume/contracts/resume.sol",
  "compiler": {
    "name": "solc",
    "version": "0.8.17+commit.8df45f5f.Emscripten.clang"
  },
  "schemaVersion": "3.4.11",
  "updatedAt": "2023-02-12T16:22:40.127Z",
  "devdoc": {
    "kind": "dev",
    "methods": {},
    "version": 1
  },
  "userdoc": {
    "kind": "user",
    "methods": {},
    "version": 1
  }
}